:100000000C9434000C9451000C9451000C94510049
:100010000C9451000C9451000C9451000C9451001C
:100020000C9451000C9451000C9451000C9451000C
:100030000C9451000C9451000C9451000C945100FC
:100040000C9451000C9451000C94F5000C94510048
:100050000C9451000C9451000C9451000C945100DC
:100060000C9451000C94510011241FBECFEFD8E026
:10007000DEBFCDBF11E0A0E0B1E0EAEFF7E002C0E3
:1000800005900D92A632B107D9F721E0A6E2B1E0C2
:1000900001C01D92A63AB207E1F70E94EE010C944E
:1000A000FB030C9400005B9A83E08A95F1F7000053
:1000B0005B9885EF90E00197F1F700C0000008958C
:1000C0009BB19F709BB980FD5C9A81FD5D9A82FD1A
:1000D0005E9A83FD5F9A0C945300CF93C82F5A9871
:1000E00082958F700E9460008C2F8F70CF910C943E
:1000F0006000CF93C82F5A9A82958F700E9460003B
:100100008C2F8F70CF910C946000CF93DF93EC0114
:100110008991811103C0DF91CF9108950E947900E8
:10012000F7CF8AB18C6F8AB922E383E391E0215043
:1001300080409040E1F700C000C083E00E94600072
:100140008CE597E20197F1F783E00E94600085EF6C
:1001500090E00197F1F700C0000083E00E9460008A
:1001600082E00E94600088E20E946D008CE00E94A4
:100170006D0081E00E946D0083E393E10197F1F748
:1001800086E00C946D00229AE0E8F0E080818164C2
:100190008083E1E8F0E080818A6080838FEF90E0E7
:1001A00090938900809388000895E0E8F0E08081D2
:1001B000806480832A9A2FEF8FEF9DE12150804049
:1001C0009040E1F700C0000080818F7B80832A98F7
:1001D000089586E08093C2001092C5008FE380935B
:1001E000C40088E98093C10008951F920F920FB652
:1001F0000F9211248F939F93AF93BF93EF93FF932D
:100200008091C600E0912801F0912901EA5CFE4F3F
:100210008083809128019091290101969093290172
:100220008093280180912801909129010797A4F4D7
:10023000A0912801B0912901E0912801F0912901B4
:10024000AB5CBE4FE150FF4F9C918081981721F02D
:100250001092290110922801809128019091290182
:10026000C2971CF081E080932701FF91EF91BF912D
:10027000AF919F918F910F900FBE0F901F90189587
:1002800090917C00907F8F70982B90937C00809150
:100290007A00806480937A0080917A0086FDFCCF9A
:1002A0008091790008954F925F926F927F928F9222
:1002B0009F92AF92BF92CF92DF92EF92FF920F93F5
:1002C0001F93CF93DF93CDB7DEB728970FB6F8947F
:1002D000DEBF0FBECDBF6C012A013B018901CB01FE
:1002E000BA010E948A024B014AE0B601C4010E9491
:1002F000C603101611060CF04AC00730110514F0A1
:1003000006E010E0B401990C880B990B0E94C20220
:100310009B01AC01C301B2010E941D024B015C01B3
:1003200066E071E0C6010E94BB03F12CE12C20E0E5
:1003300030E040E251E4C501B4010E944E034B019C
:100340005C012FEFE21AF20AE016F10684F320E0D6
:1003500030E040E05FE30E941E020E948A02CB016F
:100360004AE09E012F5F3F4F5901B9010E94C60329
:10037000F50101900020E9F731977F01EA18FB08A9
:10038000E016F106DCF0B501C6010E94BB03289619
:100390000FB6F894DEBF0FBECDBFDF91CF911F9196
:1003A0000F91FF90EF90DF90CF90BF90AF909F9014
:1003B0008F907F906F905F904F90089568E071E00C
:1003C000C6010E94BB033FEFE31AF30AD9CF80E6D0
:1003D00080937C0087E880937A0008958FEF8AB934
:1003E0000E9491000E94C300789481E00E946D00F9
:1003F00083E393E10197F1F780E80E946D008AE0C2
:1004000091E00E9485009FEF2FEF87E791502040F9
:100410008040E1F700C0000081E00E946D0082E1B1
:1004200091E00E9485000E94D50090E020E08AE5DE
:10043000915020408040E1F7EFCF5058BB27AA27CA
:100440000E9435020C9414030E94060338F00E94A7
:100450000D0320F039F49F3F19F426F40C940303A4
:100460000EF4E095E7FB0C94FD02E92F0E942503B2
:1004700058F3BA17620773078407950720F079F4D9
:10048000A6F50C9447030EF4E0950B2EBA2FA02D81
:100490000B01B90190010C01CA01A0011124FF2731
:1004A000591B99F0593F50F4503E68F11A16F0402C
:1004B000A22F232F342F4427585FF3CF469537952B
:1004C0002795A795F0405395C9F77EF41F16BA0BF0
:1004D000620B730B840BBAF09150A1F0FF0FBB1F9E
:1004E000661F771F881FC2F70EC0BA0F621F731FE7
:1004F000841F48F4879577956795B795F7959E3F44
:1005000008F0B0CF9395880F08F09927EE0F9795D4
:10051000879508950E9491026894B1110C94480344
:1005200008950E942D0388F09F5798F0B92F9927BE
:10053000B751B0F0E1F0660F771F881F991F1AF0CE
:10054000BA95C9F714C0B13091F00E944703B1E0E9
:1005500008950C944703672F782F8827B85F39F0E8
:10056000B93FCCF3869577956795B395D9F73EF467
:1005700090958095709561957F4F8F4F9F4F08950F
:10058000E89409C097FB3EF490958095709561952D
:100590007F4F8F4F9F4F9923A9F0F92F96E9BB27E3
:1005A0009395F695879577956795B795F111F8CF5F
:1005B000FAF4BB0F11F460FF1BC06F5F7F4F8F4FCA
:1005C0009F4F16C0882311F096E911C0772321F0C0
:1005D0009EE8872F762F05C0662371F096E8862F58
:1005E00070E060E02AF09A95660F771F881FDAF7AF
:1005F000880F9695879597F9089597F99F6780E8F2
:1006000070E060E008959FEF80EC089500240A9464
:100610001616170618060906089500240A941216DD
:100620001306140605060895092E0394000C11F410
:10063000882352F0BB0F40F4BF2B11F460FF04C0BD
:100640006F5F7F4F8F4F9F4F089557FD9058440F16
:10065000551F59F05F3F71F04795880F97FB991F21
:1006600061F09F3F79F087950895121613061406DE
:10067000551FF2CF4695F1DF08C01616170618066B
:10068000991FF1CF86957105610508940895E89446
:10069000BB2766277727CB0197F908950E9461034E
:1006A0000C9414030E94060338F00E940D0320F0FE
:1006B000952311F00C94FD020C94030311240C9467
:1006C00048030E94250370F3959FC1F3950F50E0F6
:1006D000551F629FF001729FBB27F00DB11D639FF4
:1006E000AA27F00DB11DAA1F649F6627B00DA11D9A
:1006F000661F829F2227B00DA11D621F739FB00D40
:10070000A11D621F839FA00D611D221F749F3327AF
:10071000A00D611D231F849F600D211D822F762F48
:100720006A2F11249F5750409AF0F1F088234AF025
:10073000EE0FFF1FBB1F661F771F881F9150504091
:10074000A9F79E3F510580F00C94FD020C944803DC
:100750005F3FE4F3983ED4F3869577956795B79518
:10076000F795E7959F5FC1F7FE2B880F911D969532
:10077000879597F90895FB01DC010D900020E9F7BA
:10078000119701900D920020E1F70895BB274A30A0
:1007900031F4992322F4BDE2909581959F4F0C94FA
:1007A000D203BB27FB015527AA27880F991FAA1F31
:1007B000A41710F0A41B83955051B9F7A05DAA337C
:1007C00008F0A95DA193009779F7B111B193119247
:1007D000CB010C94EB03DC01FC01672F71917723B3
:1007E000E1F7329704C07C916D9370836291AE17EC
:0A07F000BF07C8F30895F894FFCF87
:1007FA002447504747412E0030004C6F6164696EB0
:10080A0067004C697374656E20666F722062757A30
:06081A007A657221000066
:00000001FF
