:100000000C9434000C9451000C9451000C94510049
:100010000C9451000C9451000C9451000C9451001C
:100020000C9451000C9451000C9451000C9451000C
:100030000C9451000C9451000C9451000C945100FC
:100040000C9451000C9451000C94C6010C94510076
:100050000C9451000C9451000C9451000C945100DC
:100060000C9451000C94510011241FBECFEFD8E026
:10007000DEBFCDBF11E0A0E0B1E0EAEFF0E102C0E9
:1000800005900D92A032B107D9F721E0A0E2B1E0CE
:1000900001C01D92A33CB207E1F70E943E030C94FD
:1000A0007B080C9400005B9A83E08A95F1F70000CE
:1000B0005B9885EF90E00197F1F700C0000008958C
:1000C0009BB19F709BB980FD5C9A81FD5D9A82FD1A
:1000D0005E9A83FD5F9A0C945300CF93C82F5A9871
:1000E00082958F700E9460008C2F8F70CF910C943E
:1000F0006000CF93C82F5A9A82958F700E9460003B
:100100008C2F8F70CF910C946000CF93DF93EC0114
:100110008991811103C0DF91CF9108950E947900E8
:10012000F7CF8AB18C6F8AB98BB183708BB922E318
:1001300083E391E0215080409040E1F700C000C08F
:1001400083E00E9460008CE597E20197F1F783E07D
:100150000E94600085EF90E00197F1F700C0000079
:1001600083E00E94600082E00E94600088E20E94BA
:100170006D008CE00E946D0081E00E946D0083E3C1
:1001800093E10197F1F786E00C946D00CF93DF9334
:1001900000D0CDB7DEB7198290E49A838C0F9D2FE3
:1001A000911DFC018181860F80680F900F90DF9177
:1001B000CF910C946D00229AE0E8F0E08081816498
:1001C0008083E1E8F0E080818A6080838FEF90E0B7
:1001D00090938900809388000895E0E8F0E08081A2
:1001E000806480832A9A2FEF8FEF9DE12150804019
:1001F0009040E1F700C0000080818F7B80832A98C7
:1002000008959093C5008093C40088E98093C1004D
:1002100086E08093C2005098519A78940895CF92C6
:10022000DF92EF92FF920F931F93CF93DF9300D053
:1002300000D000D0CDB7DEB760E071E00E940705C6
:10024000009709F491C062E071E00E94220560E02D
:1002500071E0892B09F097C090E080E00E940705CB
:1002600060E071E090E080E00E9407056C016EE2C2
:1002700070E00E9417058C010097A1F17C01EC1839
:10028000FD08A701B60183E391E00E942B05F70169
:10029000ED5CFE4F10820F5F1F4F1F930F9389E09D
:1002A00091E09F938F931F9286E08F938E010F5F53
:1002B0001F4F1F930F930E948605B80183E391E0BF
:1002C0000E940C0560E071E090E080E00E9407056C
:1002D000BC0183E391E00E940C050FB6F894DEBFE9
:1002E0000FBECDBF60E071E090E080E00E940705A6
:1002F0006C016EE270E00E9417058C010097A1F17D
:100300007C01EC18FD08A701B60183E291E00E9490
:100310002B05F701ED5DFE4F10820F5F1F4F1F93FE
:100320000F9389E091E09F938F931F9286E08F93C4
:100330008E010F5F1F4F1F930F930E948605B80118
:1003400083E291E00E940C0560E071E090E080E0C3
:100350000E940705BC0183E291E00E940C050FB6E4
:10036000F894DEBF0FBECDBF26960FB6F894DEBF61
:100370000FBECDBFDF91CF911F910F91FF90EF90F6
:10038000DF90CF90089590E080E058CF1F920F92B9
:100390000FB60F9211242F933F934F935F936F9358
:1003A0007F938F939F93AF93BF93EF93FF93F894B3
:1003B0008091C6008A3011F08D3069F4E0912001FF
:1003C000F0E0ED5BFE4F108283E491E00E940F01AC
:1003D000109220010EC0909120019F37C8F7E09144
:1003E000200191E09E0F90932001F0E0ED5BFE4F25
:1003F00080837894FF91EF91BF91AF919F918F91FE
:100400007F916F915F914F913F912F910F900FBE10
:100410000F901F90189560E080E00E94C60080E178
:1004200091E00E94850065E080E00E94C60083E3C1
:1004300091E00E94850060E081E00E94C60086E1B4
:1004400091E00E94850065E081E00E94C60083E2A1
:1004500091E00C948500289A089590917C00907FFB
:100460008F70982B90937C0080917A0080648093A9
:100470007A0080917A0086FDFCCF80917900089502
:100480004F925F926F927F928F929F92AF92BF92A4
:10049000CF92DF92EF92FF920F931F93CF93DF9350
:1004A000CDB7DEB728970FB6F894DEBF0FBECDBF2D
:1004B0006C012A013B018901CB01BA010E94D603DC
:1004C0004B014AE0B601C4010E94610510161106F5
:1004D0000CF04AC00730110514F006E010E0B4013A
:1004E000990C880B990B0E940E049B01AC01C3016F
:1004F000B2010E9469034B015C016CE171E0C6012D
:100500000E940C05F12CE12C20E030E040E251E4A7
:10051000C501B4010E949A044B015C012FEFE21A5D
:10052000F20AE016F10684F320E030E040E05FE3F9
:100530000E946A030E94D603CB014AE09E012F5F0E
:100540003F4F5901B9010E946105F501019000205A
:10055000E9F731977F01EA18FB08E016F106DCF0B5
:10056000B501C6010E940C0528960FB6F894DEBFAF
:100570000FBECDBFDF91CF911F910F91FF90EF90F4
:10058000DF90CF90BF90AF909F908F907F906F90B3
:100590005F904F9008956EE171E0C6010E940C05D6
:1005A0003FEFE31AF30AD9CF80E680937C0087E817
:1005B00080937A000895209A289A08959091C00017
:1005C00095FFFCCF8093C60008958091C00087FFFF
:1005D000FCCF8091C60008952898089584B18A625E
:1005E00084B92498299A81E58CBD08958EBD0DB4F7
:1005F00007FEFDCF8EB5089529988FEF9FE50197EF
:10060000F1F700C000000895299A08950F931F93F1
:10061000CF93DF938C010E94FC02E8018991811144
:100620000CC08DE00E94F6028AE00E94F602DF9183
:10063000CF911F910F910C9404030E94F602EECF0C
:10064000EF92FF920F931F93CF93DF937C018B0167
:100650000E94FC02E7010E0D1F1DC017D10731F0EB
:1006600080E00E94F60289938A30B9F7DF91CF913A
:100670001F910F91FF90EF900C9404038FE290E094
:100680000E9401010E94EE020E9491000E94DB0282
:1006900081E00E946D0083E393E10197F1F780E828
:1006A0000E946D000E942B029FEF2FEF82E091507D
:1006B00020408040E1F700C000C00E940B029FEF85
:1006C0002FEF8DE1915020408040E1F700C0000005
:1006D000F4CF5058BB27AA270E9481030C946004D2
:1006E0000E94520438F00E94590420F039F49F3FD0
:1006F00019F426F40C944F040EF4E095E7FB0C94E7
:100700004904E92F0E94710458F3BA17620773076E
:100710008407950720F079F4A6F50C9493040EF461
:10072000E0950B2EBA2FA02D0B01B90190010C0101
:10073000CA01A0011124FF27591B99F0593F50F419
:10074000503E68F11A16F040A22F232F342F442771
:10075000585FF3CF469537952795A795F040539569
:10076000C9F77EF41F16BA0B620B730B840BBAF039
:100770009150A1F0FF0FBB1F661F771F881FC2F7A4
:100780000EC0BA0F621F731F841F48F487957795B8
:100790006795B795F7959E3F08F0B0CF9395880F72
:1007A00008F09927EE0F9795879508950E94DD032D
:1007B0006894B1110C94940408950E94790488F00F
:1007C0009F5798F0B92F9927B751B0F0E1F0660F15
:1007D000771F881F991F1AF0BA95C9F714C0B13056
:1007E00091F00E949304B1E008950C949304672F54
:1007F000782F8827B85F39F0B93FCCF38695779585
:100800006795B395D9F73EF490958095709561956D
:100810007F4F8F4F9F4F0895E89409C097FB3EF498
:1008200090958095709561957F4F8F4F9F4F99233D
:10083000A9F0F92F96E9BB279395F69587957795BB
:100840006795B795F111F8CFFAF4BB0F11F460FF7B
:100850001BC06F5F7F4F8F4F9F4F16C0882311F0D3
:1008600096E911C0772321F09EE8872F762F05C0E7
:10087000662371F096E8862F70E060E02AF09A9582
:10088000660F771F881FDAF7880F9695879597F977
:10089000089597F99F6780E870E060E008959FEF02
:1008A00080EC089500240A94161617061806090607
:1008B000089500240A9412161306140605060895D6
:1008C000092E0394000C11F4882352F0BB0F40F45E
:1008D000BF2B11F460FF04C06F5F7F4F8F4F9F4F9E
:1008E000089557FD9058440F551F59F05F3F71F020
:1008F0004795880F97FB991F61F09F3F79F0879587
:100900000895121613061406551FF2CF4695F1DF0F
:1009100008C0161617061806991FF1CF869571059F
:10092000610508940895E894BB2766277727CB01D3
:1009300097F908950E94AD040C9460040E9452043B
:1009400038F00E94590420F0952311F00C944904CA
:100950000C944F0411240C9494040E94710470F3BD
:10096000959FC1F3950F50E0551F629FF001729F54
:10097000BB27F00DB11D639FAA27F00DB11DAA1F63
:10098000649F6627B00DA11D661F829F2227B00DB0
:10099000A11D621F739FB00DA11D621F839FA00D3B
:1009A000611D221F749F3327A00D611D231F849F8B
:1009B000600D211D822F762F6A2F11249F575040E2
:1009C0009AF0F1F088234AF0EE0FFF1FBB1F661F5D
:1009D000771F881F91505040A9F79E3F510580F026
:1009E0000C9449040C9494045F3FE4F3983ED4F3D0
:1009F000869577956795B795F795E7959F5FC1F7CA
:100A0000FE2B880F911D9695879597F9089541E2E1
:100A100051E00E943A050895FB01DC010D90002091
:100A2000E9F7119701900D920020E1F70895FC017C
:100A30008191861721F08823D9F799270895319756
:100A4000CF010895FB01DC018D9101908019011007
:100A5000D9F3990B0895FB01DC014150504048F057
:100A600001900D920020C9F701C01D9241505040E5
:100A7000E0F70895FA01A191B081009719F4109759
:100A8000E1F0CD01DC01CD010D90002011F4C00199
:100A900013C0FB012191222319F02015D9F7F3CFC0
:100AA000FB012191201519F41E92119606C02223F4
:100AB000C1F70D900020A1F7D001FA01A193B083F6
:100AC0000895BB274A3031F4992322F4BDE2909572
:100AD00081959F4F0C946D05BB27FB015527AA27D5
:100AE000880F991FAA1FA41710F0A41B83955051BB
:100AF000B9F7A05DAA3308F0A95DA193009779F733
:100B0000B111B1931192CB010C94A607AEE0B0E005
:100B1000ECE8F5E00C9452080D891E898F89988DB8
:100B200026E02C831A83098397FF02C080E090E8B7
:100B300001979E838D83AE01455E5F4F698D7A8DEF
:100B4000CE0101960E94B6054D815E8157FD0AC017
:100B50002F813885421753070CF49A01020F131F97
:100B6000F80110822E96E4E00C946E08ABE0B0E041
:100B7000ECEBF5E00C9444087C013B018A01FC019C
:100B800017821682838181FFC8C1CE0101965C0164
:100B9000F7019381F30193FD859193FF81913F01CB
:100BA000882309F453C1853239F493FD859193FF6D
:100BB00081913F01853229F4B70190E00E94B60788
:100BC000E7CF912C212C312CFFE1F31538F08B323B
:100BD00011F190F4803209F1833229F137FC3CC0E5
:100BE00020ED280F2A3050F536FE20C08AE0989E6E
:100BF000200D1124922E06C08D3291F0803371F7B2
:100C0000689430F8F30193FD859193FF81913F0142
:100C10008111DACF21C0689431F8689432F8F2CFAC
:100C2000689433F8EFCF689434F8ECCFEAE02E9E66
:100C3000200D1124222E689435F8E4CF8E3229F449
:100C400036FC04C1689436F8DDCF8C3619F468940C
:100C500037F8D8CF8836B1F2982F9F7D95549330CE
:100C6000E0F08336A1F18337C1F1833509F063C029
:100C70002801F2E04F0E511CF801C080D180692D8F
:100C800070E036FC02C06FEF7FEFC6010E94900754
:100C90004C01689437F882010AC00C5F1F4FFFE3D4
:100CA000F98388248394912C6501E89437F833FE06
:100CB0002DC0522C8114910471F5552009F468CF90
:100CC000B70180E290E00E94B6075A94F6CFF8018F
:100CD000808189830E5F1F4FE4CF2801F2E04F0E21
:100CE000511CF801C080D180692D70E036FC02C033
:100CF0006FEF7FEFC6010E949B074C018201D5CFA9
:100D0000B70180E290E00E94B6072A9428141904E3
:100D100009F0B0F7CECFF60137FC859137FE81910F
:100D20006F01B70190E00E94B60751105A94F1E0AC
:100D30008F1A9108BFCF843619F0893609F077C031
:100D4000F80137FE6BC060817181828193810C5FF5
:100D50001F4FF32DFF763F2E97FF09C0909580958A
:100D6000709561957F4F8F4F9F4F689437F82AE0B9
:100D700030E0A5010E94E607C82ECA188C2C432C2F
:100D800036FE0CC0E89440F8C91440F434FE05C0A7
:100D900032FC03C0F32DFE7E4F2E892C44FE95C0FD
:100DA000FE01EC0DF11D8081803309F087C0242DF8
:100DB000297E422E842D8870582E43FC95C040FE1B
:100DC0008FC09C2C821418F42C0C922C981844FE82
:100DD00091C0B70180E390E00E94B60742FE09C0CF
:100DE00088E790E041FE02C088E590E0B7010E94EC
:100DF000B607C91408F48AC0CA94D12C9FEFC91A47
:100E0000D90ACA0CDB1CF60182916F01B70190E090
:100E10000E94B607AC14BD04B1F74FCF6081718159
:100E2000072E000C880B990B0E5F1F4F92CFD32C0F
:100E3000E894D4F82AE030E0853739F1232D297F72
:100E4000D22E8F3601F148F48835A9F0F70186815A
:100E500097812B96E2E10C946008803749F088373F
:100E6000A9F7D4FE02C06894D2F820E130E00DC0AA
:100E70006894D4F8F6CF34FE03C0822F8660D82E53
:100E800020E132E002C028E030E0F801D7FE0FC0D8
:100E900060817181828193810C5F1F4FA5010E9447
:100EA000E607C82ECA183D2CE89437F867CF608152
:100EB000718190E080E00E5F1F4FF0CF42FC02C0D6
:100EC000839478CF8394839475CF842D867809F4A6
:100ED00071CFF6CFB70180E290E00E94B60783940D
:100EE0008214C0F3512C73CF522C5818821408F47A
:100EF0006ECFF8CF842D867809F47BCF8BE241FE4C
:100F000080E247FC8DE2B70190E071CFB70180E34A
:100F100090E00E94B6079A946CCF8FEF9FEF99CF25
:100F2000FC010590615070400110D8F780959095B4
:100F30008E0F9F1F0895FC016150704001900110B9
:100F4000D8F7809590958E0F9F1F0895DC01FC01C6
:100F5000672F71917723E1F7329704C07C916D93ED
:100F600070836291AE17BF07C8F308950F931F9364
:100F7000CF93DF93182F092FEB018B8181FD09C0DF
:100F80001FEF0FEF812F902FDF91CF911F910F91C6
:100F9000089582FF14C02E813F818C819D81281786
:100FA00039073CF4E881F981CF0101969983888360
:100FB00010838E819F8101969F838E83E3CFE88586
:100FC000F985812F0995892BA1F3DACFFA01AA2798
:100FD000283051F1203181F1E8946F936E7F6E5F7C
:100FE0007F4F8F4F9F4FAF4FB1E03ED0B4E03CD02A
:100FF000670F781F891F9A1FA11D680F791F8A1F0D
:10100000911DA11D6A0F711D811D911DA11D20D073
:1010100009F468943F912AE0269F11243019305D2D
:101020003193DEF6CF010895462F4770405D41931E
:10103000B3E00FD0C9F7F6CF462F4F70405D4A336B
:1010400018F0495D31FD4052419302D0A9F7EACF33
:10105000B4E0A6959795879577956795BA95C9F762
:1010600000976105710508959B01AC010A2E069455
:101070005795479537952795BA95C9F7620F731F0E
:10108000841F951FA01D08952F923F924F925F924B
:101090006F927F928F929F92AF92BF92CF92DF9288
:1010A000EF92FF920F931F93CF93DF93CDB7DEB7ED
:1010B000CA1BDB0B0FB6F894DEBF0FBECDBF099481
:1010C0002A88398848885F846E847D848C849B84D8
:1010D000AA84B984C884DF80EE80FD800C811B81E6
:1010E000AA81B981CE0FD11D0FB6F894DEBF0FBE15
:0A10F000CDBFED010895F894FFCF85
:1010FA002C00244750474741002E252E32732000EA
:10110A006C61743A20006C6F6E3A20002E00300039
:00000001FF
