:100000000C9434000C9452020C9451000C94510046
:100010000C9451000C9451000C9451000C9451001C
:100020000C9451000C9451000C9451000C9451000C
:100030000C9451000C9451000C9451000C945100FC
:100040000C9451000C9451000C94D0040C94510069
:100050000C9451000C9451000C9451000C945100DC
:100060000C9451000C94510011241FBECFEFD8E026
:10007000DEBFCDBF12E0A0E0B1E0EEE0FCE102C0E7
:1000800005900D92A834B107D9F712E0A8E4B2E0C8
:1000900001C01D92AB3EB107E1F70E94FC020C9437
:1000A000050E0C9400005B9A83E08A95F1F75B984B
:1000B00085EF90E00197F1F708959BB19F709BB990
:1000C00080FD5C9A81FD5D9A82FD5E9A83FD5F9A58
:1000D0000E94530008951F93182F5A9882958F708D
:1000E0000E945D00812F8F700E945D001F91089516
:1000F0001F93182F5A9A82958F700E945D00812F4E
:100100008F700E945D001F910895CF93DF93EC01E3
:1001100003C00E947800219688818823D1F7DF915F
:10012000CF9108958AB18C6F8AB98BB183708BB9E6
:1001300020E931E045EF50E0CA010197F1F7215085
:100140003040D1F783E00E945D008CE597E2019793
:10015000F1F783E00E945D0085EF90E00197F1F7F1
:1001600083E00E945D0082E00E945D0088E20E94C0
:100170006B008CE00E946B0081E00E946B0083E3C7
:1001800093E10197F1F786E00E946B000895DF93F9
:10019000CF9300D0CDB7DEB7198290E49A83FE01E9
:1001A000E80FF11D8181860F80680E946B000F901F
:1001B0000F90CF91DF910895399AE0E8F0E08081C7
:1001C00081648083E1E8F0E080818A6080838FEF42
:1001D00090E090938900809388000895809180003A
:1001E000806480938000419A80E197E225EF30E0BF
:1001F000F9013197F1F70197D9F7809180008F7B52
:1002000080938000419808959093C5008093C40026
:1002100088E98093C10086E08093C2005098519A8B
:100220007894089580E060E00E94C70080E091E04B
:100230000E94850080E065E00E94C7008BE592E0A7
:100240000E94850081E060E00E94C70086E091E0A6
:100250000E94850081E065E00E94C7008BE492E087
:100260000E9485000895289A089580E480937C0078
:10027000EAE7F0E080818760808380818068808306
:100280000895ECE7F0E09081907F908390818F70EB
:10029000892B8083089580917A00806480937A000E
:1002A00080917A0086FDFCCF209178003091790012
:1002B000C9010895CF93DF93FC01EB01CF01219693
:1002C0006AE070E00E94810ACB0161157105B9F7FF
:1002D0001882CF016AE070E00E94810A805D8A93F3
:1002E000CF016AE070E00E94810AFB01611571058F
:1002F00081F7DF91CF910895209A289A0895982F39
:100300008091C00085FFFCCF9093C6000895809136
:10031000C00087FFFCCF8091C600089528980895FB
:1003200084B18A6284B92498299A22982A9A81E50C
:100330008CBD8DB58E7F8DBD8CB5837F8CBD8CB50E
:100340008F7D8CBD82E08093690081E08DBB089534
:100350008EBD0DB407FEFDCF8EB50895299885EFAB
:1003600090E00197F1F70895299A85EF90E00197C1
:10037000F1F70895EF92FF920F931F93CF93DF93BE
:100380008C01299885EF90E00197F1F7C0E0D0E06B
:1003900085EFE82EF12C44C0C130D10541F481E055
:1003A0006AE00E94C7008CE091E00E948500F8019D
:1003B00080818EBD0DB407FEFDCFC0FD10C081E071
:1003C00065E00E94C70080E191E00E94850084EC16
:1003D00099E0F7013197F1F70197D9F70FC081E064
:1003E00065E00E94C70085E191E00E94850084ECF1
:1003F00099E0F7013197F1F70197D9F781E061E0D2
:100400000E94C70089E191E00E94850084EC99E098
:10041000F7013197F1F70197D9F70F5F1F4F219639
:10042000F8018081882309F0B7CF8DE08EBD0DB42F
:1004300007FEFDCF8AE08EBD0DB407FEFDCF81E043
:100440006CE00E94C7008DE191E00E948500299A2E
:1004500085EF90E00197F1F7DF91CF911F910F9118
:10046000FF90EF900895AC012998E5EFF0E0319707
:10047000F1F720E030E00DC01EBC0DB407FEFDCF4B
:100480008EB5FA01E20FF31F80838A3029F02F5FC7
:100490003F4F2617370780F3299A85EF90E00197A1
:1004A000F1F708951F920F920FB60F9211248F93B8
:1004B0009F9381E090E090933F0180933E019F9154
:1004C0008F910F900FBE0F901F9018958F929F9253
:1004D000AF92BF92CF92DF92EF92FF920F931F9352
:1004E000DF93CF93CDB7DEB728970FB6F894DEBF72
:1004F0000FBECDBF4C016A017B01C9012730310518
:1005000014F086E090E05C0197FF02C0AA24BB24AF
:10051000C701B6010E941808DC01CB018C01B401AF
:100520004AE050E00E94260BA114B10409F451C026
:10053000B801882777FD8095982F0E94BA079B0104
:10054000AC01C701B6010E9462067B018C01C401A7
:1005500062E271E00E94D10ACC24DD24C801B70117
:1005600020E030E040E251E40E94C0067B018C01B3
:100570000894C11CD11CCA14DB0484F320E030E0D1
:1005800040E05FE30E9493060E941808DC01CB0163
:100590008E010F5F1F4FB8014AE050E00E94260B0A
:1005A000F80101900020E9F73197E01BF10B8F0172
:1005B00007C0C40164E271E00E94D10A0F5F1F4FBF
:1005C0000A151B05B4F3C401BE016F5F7F4F0E9483
:1005D000D10A28960FB6F894DEBF0FBECDBFCF91DB
:1005E000DF911F910F91FF90EF90DF90CF90BF9020
:1005F000AF909F908F9008956F927F928F929F926D
:10060000AF92BF92CF92DF92EF92FF920F931F9320
:10061000DF93CF93CDB7DEB7C054D1400FB6F89477
:10062000DEBF0FBECDBF8FE290E00E9404010E94AA
:1006300090010E949200209A289A80E480937C0086
:1006400080917A00876080937A0080917A00806838
:1006500080937A0081E00E946B0083E393E101972D
:10066000F1F780E80E946B00289A80917C00807FDF
:1006700080937C0080917C00816080937C004E019F
:100680000894811C911C35EFA32EB12C21E2C22EBF
:10069000D12CCC0EDD1E91E4692E712C6C0E7D1ECA
:1006A00080917A00806480937A0080917A0086FD40
:1006B000FCCF609178007091790080E090E00E941A
:1006C0006C087B018C01C401B801A70123E030E074
:1006D0000E94660280E060E00E94C700C4010E94A0
:1006E000850086E291E00E94BA0188EE93E0F50170
:1006F0003197F1F70197D9F781E061E00E94C700D7
:100700008AE291E00E948500C801B7012AE030EC3E
:1007100049E95BE30E94C00620E030E040E250E49B
:100720000E9462062DEC3CEC4CE45EE30E94C006A5
:10073000AB01BC01C60123E030E00E94660281E00B
:1007400060E00E94C700C6010E94850080913E01C2
:1007500090913F01892B49F0C30160E071E00E9454
:10076000330210923F0110923E0180E197E2F501C1
:100770003197F1F7019709F493CFF9CFCF92DF9238
:10078000EF92FF920F931F93DF93CF9300D000D08F
:1007900000D0CDB7DEB7EEC060E371E00E94E70A9B
:1007A000009709F0E5C080E090E06EE271E00E9401
:1007B000CC0A80E090E06EE271E00E94CC0A6C010D
:1007C0006EE270E00E94DC0A7C01009709F446C0EA
:1007D0008C010C191D098BE592E0B601A8010E945D
:1007E000F00A055A1D4FD8011C92EDB7FEB7389795
:1007F0000FB6F894FEBF0FBEEDBF31968E010F5FAE
:100800001F4FADB7BEB712961C930E93119786E09B
:1008100090E09383828387E391E0958384830894B7
:10082000E11CF11CF782E6820E94470BEDB7FEB790
:1008300038960FB6F894FEBF0FBEEDBF8BE592E081
:10084000B8010E94D10A80E090E06EE271E00E945F
:10085000CC0ABC018BE592E00E94D10AEBE5F2E004
:1008600001900020E9F73197EB55F240AF014A5A69
:100870005D4F9F012B5A3D4FD9018C91DA018C932A
:10088000EC5AFD4F8081D9018C938EE2808380E009
:1008900090E06EE271E00E94CC0A6C016EE270E0C2
:1008A0000E94DC0A7C01009709F448C08C010C19F5
:1008B0001D098BE492E0B601A8010E94F00A055BD5
:1008C0001D4FF80110828DB79EB708970FB6F894A8
:1008D0009EBF0FBE8DBFEDB7FEB731968E010F5F85
:1008E0001F4FADB7BEB712961C930E93119786E0BB
:1008F00090E09383828387E391E0958384830894D7
:10090000E11CF11CF782E6820E94470BEDB7FEB7AF
:1009100038960FB6F894FEBF0FBEEDBF8BE492E0A1
:10092000B8010E94D10A80E090E06EE271E00E947E
:10093000CC0ABC018BE492E00E94D10AEBE4F2E025
:1009400001900020E9F73197EB54F240AF014A5B88
:100950005D4F9F012B5B3D4FD9018C91DA018C9348
:10096000EC5BFD4F8081D9018C938EE2808309C0BE
:1009700080E090E06EE271E00E94CC0A009709F0FE
:100980000BCF26960FB6F894DEBF0FBECDBFCF912A
:10099000DF911F910F91FF90EF90DF90CF9008951E
:1009A0001F920F920FB60F9211242F933F934F93E4
:1009B0005F936F937F938F939F93AF93BF93EF93C7
:1009C000FF93F8949091C6009A3011F09D3059F43D
:1009D000E0914802F0E0E559FD4F10828BE692E08D
:1009E0000E94BE030FC0809148028F3758F4809157
:1009F0004802E82FF0E0E559FD4F90838F5F809328
:100A0000480202C0109248027894FF91EF91BF9182
:100A1000AF919F918F917F916F915F914F913F9196
:100A20002F910F900FBE0F901F901895A0E0B0E08F
:100A3000ECE1F5E00C94950ADC012B01FA019C91A4
:100A4000923008F439C1EB018881823008F433C157
:100A5000943069F4843009F02FC111969C9111975C
:100A60008981981709F428C1A0E4B1E025C1843038
:100A700009F421C18230A9F4923009F01DC19A0114
:100A8000AD0188E0EA010990AE01E90109929E01F9
:100A90008150C1F7E201898111969C91892381835C
:100AA00008C1923009F407C112962D903C9013971B
:100AB000EB018A819B811496AD90BD90CD90DC9026
:100AC0001797EC80FD800E811F819101281B390B47
:100AD000B90137FF04C066277727621B730B6032AA
:100AE00071050CF061C0121613066CF53701480150
:100AF000062E04C096948794779467940A94D2F74C
:100B000021E030E040E050E004C0220F331F441FDA
:100B1000551F6A95D2F721503040404050402E2159
:100B20003F2140235123211531054105510521F075
:100B300021E030E040E050E079018A01E628F72822
:100B4000082919293CC0232BD1F1260E371E350167
:100B50004601062E04C096948794779467940A946D
:100B6000D2F721E030E040E050E004C0220F331F14
:100B7000441F551F6A95D2F72150304040405040E5
:100B80002A213B214C215D212115310541055105CB
:100B900021F021E030E040E050E059016A01A62850
:100BA000B728C828D9280BC0821593052CF01C0142
:100BB000AA24BB24650103C0EE24FF2487011196FB
:100BC0009C91D20111968C91981709F445C09923F4
:100BD00039F0A80197012A193B094C095D0906C0A3
:100BE000A60195012E193F09400B510B57FD08C076
:100BF00011823382228224833583468357831DC02A
:100C000081E081833382228288279927DC01821B3D
:100C1000930BA40BB50B84839583A683B7830DC078
:100C2000220F331F441F551F248335834683578368
:100C300082819381019793838283248135814681C8
:100C40005781DA01C9010197A109B1098F5F9F4F4F
:100C5000AF4FBF4328F30BC0918333822282EA0C4B
:100C6000FB1C0C1D1D1DE482F5820683178383E0A7
:100C70008083248135814681578157FF1AC0C9017D
:100C8000AA2797FDA095BA2F81709070A070B070C0
:100C90005695479537952795822B932BA42BB52BEB
:100CA00084839583A683B7838281938101969383FE
:100CB0008283DF0101C0D201CD01CDB7DEB7E2E111
:100CC0000C94B10AA0E2B0E0E8E6F6E00C94A10AC8
:100CD00069837A838B839C832D833E834F835887DC
:100CE000E9E0EE2EF12CEC0EFD1ECE010196B701CF
:100CF0000E94090A8E010F5E1F4FCE010596B801B2
:100D00000E94090A8A8991E089278A8BC701B80164
:100D1000AE01475E5F4F0E9416050E943409A096FF
:100D2000E6E00C94BD0AA0E2B0E0E9E9F6E00C943C
:100D3000A10A69837A838B839C832D833E834F83AF
:100D40005887F9E0EF2EF12CEC0EFD1ECE01019636
:100D5000B7010E94090A8E010F5E1F4FCE01059652
:100D6000B8010E94090AC701B801AE01475E5F4F92
:100D70000E9416050E943409A096E6E00C94BD0A74
:100D8000A0E2B0E0E6ECF6E00C94950A69837A8381
:100D90008B839C832D833E834F835887CE0101969E
:100DA000BE01675F7F4F0E94090ACE010596BE0112
:100DB0006F5E7F4F0E94090A9985923088F0898979
:100DC0008230C8F0943019F4823051F404C0843079
:100DD00029F4923081F480E491E0C6C0923049F465
:100DE00020E09A858A89981321E02A87CE01099606
:100DF000BBC0823049F420E09A858A89981321E0AB
:100E00002A8BCE014196B0C02D843E844F845888F1
:100E10006D887E888F88988CEE24FF248701AA2411
:100E2000BB24650140E050E060E070E0E0E0F0E00D
:100E3000C10181709070892BE9F0E60CF71C081D48
:100E4000191D9A01AB012A0D3B1D4C1D5D1D80E053
:100E500090E0A0E0B0E0E614F7040805190520F4DE
:100E600081E090E0A0E0B0E0BA01A901480F591F6D
:100E70006A1F7B1FAA0CBB1CCC1CDD1C97FE08C084
:100E800081E090E0A0E0B0E0A82AB92ACA2ADB2AD3
:100E90003196E032F10549F0660C771C881C991CEC
:100EA0005694479437942794C3CFFA85EA892B89BF
:100EB0003C898B859C85280F391F2E5F3F4F17C0BB
:100EC000CA0181709070892B61F016950795F7948F
:100ED000E79480E090E0A0E0B0E8E82AF92A0A2B45
:100EE0001B2B76956795579547952F5F3F4F77FD5D
:100EF000E7CF0CC0440F551F661F771F17FD4160D9
:100F0000EE0CFF1C001F111F21503040403090E0BC
:100F1000590790E0690790E4790760F32B8F3C8FC5
:100F2000DB01CA018F779070A070B070803491059A
:100F3000A105B10561F447FD0AC0E114F104010502
:100F4000110529F0405C5F4F6F4F7F4F40781A8E3C
:100F5000FE1711F081E08A8F4D8F5E8F6F8F78A31F
:100F600083E0898FCE0149960E943409A096E2E180
:100F70000C94B10AA8E0B0E0E0ECF7E00C949E0A13
:100F80009B01AC0183E08983DA01C9018827B7FDA1
:100F900083959927AA27BB27B82E2115310541052E
:100FA000510519F482E089833AC08823A9F02030E2
:100FB00080E0380780E0480780E8580729F460E0BF
:100FC00070E080E09FEC30C0EE24FF248701E21A3D
:100FD000F30A040B150B02C079018A018EE1C82EB9
:100FE000D12CDC82CB82ED82FE820F831887C80170
:100FF000B7010E94E50801971816190684F4082E17
:1010000004C0EE0CFF1C001F111F0A94D2F7ED82E2
:10101000FE820F831887C81AD90ADC82CB82BA8273
:10102000CE0101960E9434092896E9E00C94BA0A90
:10103000ACE0B0E0EEE1F8E00C94A50A69837A83B5
:101040008B839C83CE010196BE016B5F7F4F0E9414
:10105000090A8D81823061F1823050F1843021F4AF
:101060008E81882351F12EC02F81388537FD20C015
:101070006E812F3131051CF06623F9F023C08EE11B
:1010800090E0821B930B29853A854B855C8504C0D3
:1010900056954795379527958A95D2F76623B1F0EF
:1010A00050954095309521953F4F4F4F5F4F0EC063
:1010B00020E030E040E050E009C02FEF3FEF4FEF7D
:1010C0005FE704C020E030E040E050E8B901CA0129
:1010D0002C96E2E00C94C10AA8E0B0E0E2E7F8E068
:1010E0000C949D0A7B018C016115710581059105A8
:1010F00019F482E0898360C083E089838EE1C82E81
:10110000D12CDC82CB82ED82FE820F831887C8014E
:10111000B7010E94E508FC013197F7FF3BC0222789
:1011200033272E1B3F0B57016801022E04C0D694B3
:10113000C794B794A7940A94D2F740E050E060E0D7
:1011400070E081E090E0A0E0B0E004C0880F991F5B
:10115000AA1FBB1F2A95D2F70197A109B1098E21B9
:101160009F21A023B1230097A105B10521F041E003
:1011700050E060E070E04A295B296C297D294D83AD
:101180005E836F8378878EE190E08E1B9F0B9C833C
:101190008B8312C0309781F00E2E04C0EE0CFF1C22
:1011A000001F111F0A94D2F7ED82FE820F83188769
:1011B000CE1ADF0ADC82CB821A82CE0101960E940F
:1011C00034092896EAE00C94B90AEF92FF920F9343
:1011D0001F937B018C0180E0E81680E0F80681E037
:1011E000080780E0180788F48FEFE816F10401057E
:1011F000110531F028F088E090E0A0E0B0E017C0E1
:1012000080E090E0A0E0B0E012C080E0E81680E06E
:10121000F80680E0080781E0180728F088E190E0F0
:10122000A0E0B0E004C080E190E0A0E0B0E020E207
:1012300030E040E050E0281B390B4A0B5B0B04C048
:1012400016950795F794E7948A95D2F7F701E85B2E
:10125000FE4F8081281B310941095109C9011F91A5
:101260000F91FF90EF900895DF92EF92FF920F930E
:101270001F93FC01E480F58006811781D180808175
:10128000823048F480E090E0A0E1B0E0E82AF92A5A
:101290000A2B1B2BA5C0843009F49FC0823021F497
:1012A000EE24FF24870105C0E114F10401051105B6
:1012B00019F4E0E0F0E096C0628173819FEF62383C
:1012C00079070CF05BC022E83FEF261B370B2A3171
:1012D00031052CF020E030E040E050E02AC0B801B9
:1012E000A701022E04C076956795579547950A94F5
:1012F000D2F781E090E0A0E0B0E004C0880F991F31
:10130000AA1FBB1F2A95D2F70197A109B1098E2107
:101310009F21A023B1230097A105B10521F081E011
:1013200090E0A0E0B0E09A01AB01282B392B4A2BCA
:101330005B2BDA01C9018F779070A070B070803498
:101340009105A105B10539F427FF09C0205C3F4F85
:101350004F4F5F4F04C0215C3F4F4F4F5F4FE0E066
:10136000F0E02030A0E03A07A0E04A07A0E45A07E6
:1013700010F0E1E0F0E079018A0127C060387105E2
:1013800064F5FB01E158FF4FD801C7018F779070DA
:10139000A070B07080349105A105B10539F4E7FE65
:1013A0000DC080E490E0A0E0B0E004C08FE390E0E6
:1013B000A0E0B0E0E80EF91E0A1F1B1F17FF05C0D2
:1013C00016950795F794E794319687E0169507955B
:1013D000F794E7948A95D1F705C0EE24FF2487019E
:1013E000EFEFF0E06E2F679566276795902F9F7758
:1013F000D794DD24D7948E2F8695492F462B582FCE
:101400005D29B701CA011F910F91FF90EF90DF9006
:101410000895FC01DB01408151812281622F6F77A9
:1014200070E0221F2227221F9381892F880F822B91
:10143000282F30E0991F9927991F11969C93119797
:1014400021153105A9F5411551056105710511F405
:1014500082E037C082E89FEF13969C938E93129799
:101460009A01AB0167E0220F331F441F551F6A9595
:10147000D1F783E08C930DC0220F331F441F551FFB
:1014800012968D919C911397019713969C938E932E
:101490001297203080E0380780E0480780E4580742
:1014A00058F314962D933D934D935C93179708959D
:1014B0002F3F310579F4411551056105710519F486
:1014C00084E08C93089564FF03C081E08C9312C084
:1014D0001C9210C02F57304013963C932E931297B6
:1014E00083E08C9387E0440F551F661F771F8A9512
:1014F000D1F7706414964D935D936D937C93179719
:101500000895AA1BBB1B51E107C0AA1FBB1FA6174A
:10151000B70710F0A61BB70B881F991F5A95A9F79C
:1015200080959095BC01CD0108952F923F924F92E6
:101530005F926F927F928F929F92AF92BF92CF9263
:10154000DF92EF92FF920F931F93CF93DF93CDB76C
:10155000DEB7CA1BDB0B0FB6F894DEBF0FBECDBFE4
:1015600009942A88398848885F846E847D848C84B5
:101570009B84AA84B984C884DF80EE80FD800C81BE
:101580001B81AA81B981CE0FD11D0FB6F894DEBFA1
:101590000FBECDBFED01089549E452E00E94FF0A5D
:1015A0000895FB01DC010D900020E9F711970190EF
:1015B0000D920020E1F70895FC018191861721F03A
:1015C0008823D9F7992708953197CF010895FB0112
:1015D000DC018D91019080190110D9F3990B0895C8
:1015E000FB01DC014150504048F001900D92002079
:1015F000C9F701C01D9241505040E0F70895FA012B
:10160000A191B081009719F41097E1F0CD01DC01B0
:10161000CD010D90002011F4C00113C0FB012191F8
:10162000222319F02015D9F7F3CFFB0121912015C2
:1016300019F41E92119606C02223C1F70D900020C6
:10164000A1F7D001FA01A193B0830895FB019F0196
:10165000E8944230C4F04532B4F44A3029F497FBA0
:101660001EF4909581959F4F642F77270E94810AE1
:10167000805D8A330CF0895D8193CB010097A1F7DF
:1016800016F45DE251931082C9010C946B0DAEE02B
:10169000B0E0EDE4FBE00C94A30A0D891E898F896C
:1016A000988D97FF02C080E090E801979E838D831C
:1016B0001A83098386E08C839E01255E3F4FCE010D
:1016C0000196698D7A8DA9010E94780B4D815E810A
:1016D00057FD0AC02F813885421753070CF49A0131
:1016E000020F131FF80110822E96E4E00C94BF0A3B
:1016F000ABE0B0E0EEE7FBE00C94950A3C012B0177
:101700005A01FC0117821682838181FD03C06FEFAD
:101710007FEFC6C19AE0892E1E010894211C311C5E
:10172000F3012381F20123FD859123FF81912F0194
:10173000882309F4B2C1853239F423FD859123FF52
:1017400081912F01853229F490E0B3010E947B0D35
:10175000E7CF982FFF24EE249924FFE1FF15D0F066
:101760009B3269F09C3228F4903259F0933291F414
:101770000EC09D3249F0903369F441E024C052E03C
:10178000F52A84E0F82A28C098E0F92A25C0E0E18B
:10179000FE2A22C0F7FC29C0892F80538A3070F4BA
:1017A000F6FE05C0989C902C1124980E15C0E89C5C
:1017B000E02C1124E80EF0E2FF2A0EC09E3229F43C
:1017C000F6FC6BC140E4F42A07C09C3619F450E8DB
:1017D000F52A02C0983649F4F20123FD959123FFC2
:1017E00091912F01992309F0B8CF892F8554833027
:1017F00018F08052833038F444E050E0A40EB51E57
:101800005FE359830FC0933631F0933779F0933506
:1018100009F056C020C0F5018081898342E050E084
:10182000A40EB51E610101E010E012C0F501C080F8
:10183000D180F6FC03C06FEF7FEF02C0692D70E02E
:1018400042E050E0A40EB51EC6010E94600D8C015E
:101850005FE7F52214C0F501C080D180F6FC03C01B
:101860006FEF7FEF02C0692D70E042E050E0A40E00
:10187000B51EC6010E94550D8C0150E8F52AF3FEF5
:1018800007C01AC080E290E0B3010E947B0DEA9489
:101890008E2D90E008171907A8F30EC0F601F7FC8B
:1018A0008591F7FE81916F0190E0B3010E947B0D5D
:1018B000E110EA94015010400115110579F7EAC0D2
:1018C000943611F0993669F5F7FE08C0F5012081CC
:1018D00031814281538184E090E00AC0F50180812A
:1018E00091819C01442737FD4095542F82E090E080
:1018F000A80EB91E9FE6F92257FF09C050954095E2
:10190000309521953F4F4F4F5F4FE0E8FE2ACA01C7
:10191000B901A1012AE030E00E94A70DD82ED2180B
:1019200040C0953729F41F2D1F7E2AE030E01DC0EE
:101930001F2D197F9F3661F0903720F4983509F0FC
:10194000ACC00FC0903739F0983709F0A6C004C07A
:1019500028E030E00AC0106114FD146020E130E09E
:1019600004C014FD166020E132E017FF08C0F50145
:10197000608171818281938144E050E008C0F5016B
:1019800080819181BC0180E090E042E050E0A40EB3
:10199000B51EA1010E94A70DD82ED2188FE7F82EF0
:1019A000F122F6FE0BC05EEFF522D91438F4F4FEF6
:1019B00007C0F2FC05C08FEEF82202C01D2D01C049
:1019C000192DF4FE0DC0FE01ED0DF11D8081803357
:1019D00019F499EEF92208C01F5FF2FE05C003C09A
:1019E0008F2D867809F01F5F0F2DF3FC14C0F0FED9
:1019F0000FC01E1510F09D2C0BC09D2C9E0C911A33
:101A00001E2D06C080E290E0B3010E947B0D1F5F97
:101A10001E15C0F304C01E1510F4E11A01C0EE2417
:101A200004FF0FC080E390E0B3010E947B0D02FF32
:101A30001DC001FD03C088E790E00EC088E590E07E
:101A40000BC0802F867891F001FF02C08BE201C0AD
:101A500080E2F7FC8DE290E0B3010E947B0D06C0AE
:101A600080E390E0B3010E947B0D9A94D914C0F3F7
:101A7000DA94F101ED0DF11D808190E0B3010E9437
:101A80007B0DDD20A9F706C080E290E0B3010E9443
:101A90007B0DEA94EE20C1F743CEF3016681778196
:101AA000CB012B96E2E10C94B10AFC010590615048
:101AB00070400110D8F7809590958E0F9F1F089564
:101AC000FC016150704001900110D8F7809590950D
:101AD0008E0F9F1F0895DC01FC01672F7191772302
:101AE000E1F7329704C07C916D9370836291AE17D9
:101AF000BF07C8F308950F931F93CF93DF938C0113
:101B0000EB018B8181FF1BC082FF0DC02E813F81C5
:101B10008C819D812817390764F4E881F98101934C
:101B2000F983E88306C0E885F985802F0995892B1C
:101B300031F48E819F8101969F838E8302C00FEFC7
:101B40001FEFC801DF91CF911F910F910895FA0106
:101B5000AA27283051F1203181F1E8946F936E7FEC
:101B60006E5F7F4F8F4F9F4FAF4FB1E03ED0B4E0DD
:101B70003CD0670F781F891F9A1FA11D680F791F1E
:101B80008A1F911DA11D6A0F711D811D911DA11D2F
:101B900020D009F468943F912AE0269F112430193F
:101BA000305D3193DEF6CF010895462F4770405DDA
:101BB0004193B3E00FD0C9F7F6CF462F4F70405D89
:101BC0004A3318F0495D31FD4052419302D0A9F7E4
:101BD000EACFB4E0A6959795879577956795BA95DE
:101BE000C9F700976105710508959B01AC010A2EA4
:101BF00006945795479537952795BA95C9F7620F7B
:0E1C0000731F841F951FA01D0895F894FFCF39
:101C0E006C61743A20006C6F6E3A20006F6E650046
:101C1E0065762020006F6464006F757400646F6ECB
:101C2E0065002E003000486579004F7574002C0059
:101C3E00244750474741002E252E327320000100C5
:101C4E000000000000000000000102020303030375
:101C5E00040404040404040405050505050505052E
:101C6E00050505050505050506060606060606060E
:101C7E0006060606060606060606060606060606F6
:101C8E0006060606060606060707070707070707DE
:101C9E0007070707070707070707070707070707C6
:101CAE0007070707070707070707070707070707B6
:101CBE0007070707070707070707070707070707A6
:101CCE00070707070707070708080808080808088E
:101CDE000808080808080808080808080808080876
:101CEE000808080808080808080808080808080866
:101CFE000808080808080808080808080808080856
:101D0E000808080808080808080808080808080845
:101D1E000808080808080808080808080808080835
:101D2E000808080808080808080808080808080825
:101D3E000808080808080808080808080808080815
:081D4E0008080808080808084D
:00000001FF
