:100000000C9434000C9451000C9451000C94510049
:100010000C9451000C9451000C9451000C9451001C
:100020000C9451000C9451000C9451000C9451000C
:100030000C9451000C9451000C9451000C945100FC
:100040000C9451000C9451000C947A010C945100C2
:100050000C9451000C9451000C9451000C945100DC
:100060000C9451000C94510011241FBECFEFD8E026
:10007000DEBFCDBF11E0A0E0B1E0EEE7FAE002C0E4
:1000800005900D92AA31B107D9F721E0AAE1B1E0BC
:1000900001C01D92AD3BB207E1F70E94D2020C9461
:1000A0003D050C9400005B9A83E08A95F1F700000F
:1000B0005B9885EF90E00197F1F700C0000008958C
:1000C0009BB19F709BB980FD5C9A81FD5D9A82FD1A
:1000D0005E9A83FD5F9A0C945300CF93C82F5A9871
:1000E00082958F700E9460008C2F8F70CF910C943E
:1000F0006000CF93C82F5A9A82958F700E9460003B
:100100008C2F8F70CF910C946000CF93DF93EC0114
:100110008991811103C0DF91CF9108950E947900E8
:10012000F7CF8AB18C6F8AB98BB183708BB922E318
:1001300083E391E0215080409040E1F700C000C08F
:1001400083E00E9460008CE597E20197F1F783E07D
:100150000E94600085EF90E00197F1F700C0000079
:1001600083E00E94600082E00E94600088E20E94BA
:100170006D008CE00E946D0081E00E946D0083E3C1
:1001800093E10197F1F786E00C946D00CF93DF9334
:1001900000D0CDB7DEB7198290E49A838C0F9D2FE3
:1001A000911DFC018181860F80680F900F90DF9177
:1001B000CF910C946D00229AE0E8F0E08081816498
:1001C0008083E1E8F0E080818A6080838FEF90E0B7
:1001D00090938900809388000895E0E8F0E08081A2
:1001E000806480832A9A2FEF8FEF9DE12150804019
:1001F0009040E1F700C0000080818F7B80832A98C7
:1002000008959093C5008093C40088E98093C1004D
:1002100086E08093C2005098519A789408951F9375
:10022000CF93DF9360E071E00E94B904009709F476
:100230005AC062E071E00E94C90460E071E0892B5D
:1002400009F055C090E080E00E94B90460E071E0E0
:1002500090E080E00E94B904EC0142E050E0BC0173
:100260008DE291E00E94D2041EE210932F01BE01A4
:100270006E5F7F4F42E050E080E391E00E94D20445
:1002800067E171E08DE291E00E94BE0460E071E000
:1002900090E080E00E94B904BC018DE291E00E94F0
:1002A000BE04EDE2F1E001900020E9F73197108201
:1002B00060E071E090E080E00E94B904EC0143E06E
:1002C00050E0BC018DE191E00E94D2041093200126
:1002D000BE016D5F7F4F42E050E081E291E00E94FD
:1002E000D20410922301DF91CF911F91089590E0E5
:1002F00080E09ACF1F920F920FB60F9211242F9386
:100300003F934F935F936F937F938F939F93AF939D
:10031000BF93EF93FF93F8948091C6008A3011F059
:100320008D3069F4E0911A01F0E0E35CFE4F108239
:100330008DE391E00E940F0110921A010EC090917E
:100340001A019F37C8F7E0911A0191E09E0F909330
:100350001A01F0E0E35CFE4F80837894FF91EF9107
:10036000BF91AF919F918F917F916F915F914F91CD
:100370003F912F910F900FBE0F901F901895289AC4
:10038000089590917C00907F8F70982B90937C00C3
:1003900080917A00806480937A0080917A0086FD53
:1003A000FCCF8091790008954F925F926F927F9277
:1003B0008F929F92AF92BF92CF92DF92EF92FF9275
:1003C0000F931F93CF93DF93CDB7DEB728970FB668
:1003D000F894DEBF0FBECDBF6C012A013B0189013D
:1003E000CB01BA010E9488034B014AE0B601C40167
:1003F0000E940805101611060CF04AC007301105BE
:1004000014F006E010E0B401990C880B990B0E94DF
:10041000C0039B01AC01C301B2010E941B034B014D
:100420005C0169E071E0C6010E94BE04F12CE12C80
:1004300020E030E040E251E4C501B4010E944C04E8
:100440004B015C012FEFE21AF20AE016F10684F389
:1004500020E030E040E05FE30E941C030E9488033C
:10046000CB014AE09E012F5F3F4F5901B9010E9425
:100470000805F50101900020E9F731977F01EA189E
:10048000FB08E016F106DCF0B501C6010E94BE04CF
:1004900028960FB6F894DEBF0FBECDBFDF91CF9187
:1004A0001F910F91FF90EF90DF90CF90BF90AF9092
:1004B0009F908F907F906F905F904F9008956BE02A
:1004C00071E0C6010E94BE043FEFE31AF30AD9CFE0
:1004D00080E680937C0087E880937A000895209AD4
:1004E000289A08959091C00095FFFCCF8093C60094
:1004F00008958091C00087FFFCCF8091C6000895C9
:100500002898089584B18A6284B92498299A81E54B
:100510008CBD08958EBD0DB407FEFDCF8EB5089538
:1005200029988FEF9FE50197F1F700C0000008952B
:10053000299A08950F931F93CF93DF938C010E9404
:100540009002E801899181110CC08DE00E948A021D
:100550008AE00E948A02DF91CF911F910F910C9443
:1005600098020E948A02EECFEF92FF920F931F93A0
:10057000CF93DF937C018B010E949002E7010E0D67
:100580001F1DC017D10731F080E00E948A028993B5
:100590008A30B9F7DF91CF911F910F91FF90EF90C3
:1005A0000C9498028FE290E00E9401010E94820266
:1005B0000E9491000E946F0281E00E946D0083E31F
:1005C00093E10197F1F780E80E946D000E94BF015E
:1005D0009FEF2FEF82E0915020408040E1F700C074
:1005E00000C060E080E00E94C6008DE091E00E94C3
:1005F000850065E080E00E94C6008DE291E00E94E7
:10060000850060E081E00E94C60083E191E00E94E5
:10061000850065E081E00E94C6008DE191E00E94C6
:1006200085009FEF2FEF8DE1915020408040E1F752
:1006300000C00000D6CF5058BB27AA270E94330322
:100640000C9412040E94040438F00E940B0420F061
:1006500039F49F3F19F426F40C9401040EF4E0954C
:10066000E7FB0C94FB03E92F0E94230458F3BA170D
:10067000620773078407950720F079F4A6F50C94B8
:1006800045040EF4E0950B2EBA2FA02D0B01B901F5
:1006900090010C01CA01A0011124FF27591B99F0F8
:1006A000593F50F4503E68F11A16F040A22F232F04
:1006B000342F4427585FF3CF469537952795A79554
:1006C000F0405395C9F77EF41F16BA0B620B730BFB
:1006D000840BBAF09150A1F0FF0FBB1F661F771F6C
:1006E000881FC2F70EC0BA0F621F731F841F48F421
:1006F000879577956795B795F7959E3F08F0B0CFAA
:100700009395880F08F09927EE0F97958795089590
:100710000E948F036894B1110C94460408950E94BE
:100720002B0488F09F5798F0B92F9927B751B0F054
:10073000E1F0660F771F881F991F1AF0BA95C9F765
:1007400014C0B13091F00E944504B1E008950C94BA
:100750004504672F782F8827B85F39F0B93FCCF36D
:10076000869577956795B395D9F73EF490958095E2
:10077000709561957F4F8F4F9F4F0895E89409C002
:1007800097FB3EF490958095709561957F4F8F4FC4
:100790009F4F9923A9F0F92F96E9BB279395F695DA
:1007A000879577956795B795F111F8CFFAF4BB0F58
:1007B00011F460FF1BC06F5F7F4F8F4F9F4F16C0BC
:1007C000882311F096E911C0772321F09EE8872F46
:1007D000762F05C0662371F096E8862F70E060E002
:1007E0002AF09A95660F771F881FDAF7880F96957B
:1007F000879597F9089597F99F6780E870E060E022
:1008000008959FEF80EC089500240A9416161706A9
:1008100018060906089500240A94121613061406F1
:1008200005060895092E0394000C11F4882352F054
:10083000BB0F40F4BF2B11F460FF04C06F5F7F4F0C
:100840008F4F9F4F089557FD9058440F551F59F0F3
:100850005F3F71F04795880F97FB991F61F09F3FAD
:1008600079F087950895121613061406551FF2CFD6
:100870004695F1DF08C0161617061806991FF1CF26
:1008800086957105610508940895E894BB2766274D
:100890007727CB0197F908950E945F040C94120406
:1008A0000E94040438F00E940B0420F0952311F0FC
:1008B0000C94FB030C94010411240C9446040E9434
:1008C000230470F3959FC1F3950F50E0551F629F6D
:1008D000F001729FBB27F00DB11D639FAA27F00D99
:1008E000B11DAA1F649F6627B00DA11D661F829FC0
:1008F0002227B00DA11D621F739FB00DA11D621FA5
:10090000839FA00D611D221F749F3327A00D611DC1
:10091000231F849F600D211D822F762F6A2F1124A3
:100920009F5750409AF0F1F088234AF0EE0FFF1FD6
:10093000BB1F661F771F881F91505040A9F79E3F2D
:10094000510580F00C94FB030C9446045F3FE4F3E4
:10095000983ED4F3869577956795B795F795E79583
:100960009F5FC1F7FE2B880F911D9695879597F98C
:1009700008954BE151E00E94E1040895FB01DC0180
:100980000D900020E9F7119701900D920020E1F7FA
:100990000895FB01DC018D91019080190110D9F3BC
:1009A000990B0895FB01DC014150504048F0019043
:1009B0000D920020C9F701C01D9241505040E0F750
:1009C0000895FA01A191B081009719F41097E1F010
:1009D000CD01DC01CD010D90002011F4C00113C048
:1009E000FB012191222319F02015D9F7F3CFFB0148
:1009F0002191201519F41E92119606C02223C1F7E9
:100A00000D900020A1F7D001FA01A193B0830895C1
:100A1000BB274A3031F4992322F4BDE290958195A9
:100A20009F4F0C941405BB27FB015527AA27880F5D
:100A3000991FAA1FA41710F0A41B83955051B9F752
:100A4000A05DAA3308F0A95DA193009779F7B111D1
:100A5000B1931192CB010C942D05DC01FC01672FA1
:100A600071917723E1F7329704C07C916D93708385
:0E0A70006291AE17BF07C8F30895F894FFCF48
:100A7E002C00244750474741002E0030006C617413
:0A0A8E003A20006C6F6E3A20000061
:00000001FF
