:100000000C9434000C94E2030C9451000C945100B5
:100010000C9451000C9451000C9451000C9451001C
:100020000C9451000C9451000C9451000C9451000C
:100030000C9451000C9451000C9451000C945100FC
:100040000C9451000C9451000C94F6010C94510046
:100050000C9451000C9451000C9451000C945100DC
:100060000C9451000C94510011241FBECFEFD8E026
:10007000DEBFCDBF11E0A0E0B1E0E6E4F3E102C0F5
:1000800005900D92A433B107D9F721E0A4E3B1E0C4
:1000900001C01D92A73DB207E1F70E94F1030C9445
:1000A000A1090C9400005B9A83E08A95F1F70000A7
:1000B0005B9885EF90E00197F1F700C0000008958C
:1000C0009BB19F709BB980FD5C9A81FD5D9A82FD1A
:1000D0005E9A83FD5F9A0C945300CF93C82F5A9871
:1000E00082958F700E9460008C2F8F70CF910C943E
:1000F0006000CF93C82F5A9A82958F700E9460003B
:100100008C2F8F70CF910C946000CF93DF93EC0114
:100110008991811103C0DF91CF9108950E947900E8
:10012000F7CF8AB18C6F8AB98BB183708BB922E318
:1001300083E391E0215080409040E1F700C000C08F
:1001400083E00E9460008CE597E20197F1F783E07D
:100150000E94600085EF90E00197F1F700C0000079
:1001600083E00E94600082E00E94600088E20E94BA
:100170006D008CE00E946D0081E00E946D0083E3C1
:1001800093E10197F1F786E00C946D00CF93DF9334
:1001900000D0CDB7DEB7198290E49A838C0F9D2FE3
:1001A000911DFC018181860F80680F900F90DF9177
:1001B000CF910C946D00399AE0E8F0E08081816481
:1001C0008083E1E8F0E080818A6080838FEF90E0B7
:1001D00090938900809388000895E0E8F0E08081A2
:1001E00080648083419A2FEF8FEF9DE12150804002
:1001F0009040E1F700C0000080818F7B80834198B0
:1002000008959093C5008093C40088E98093C1004D
:1002100086E08093C2005098519A78940895CF92C6
:10022000DF92EF92FF920F931F93CF93DF9300D053
:1002300000D000D0CDB7DEB761E071E00E942D069E
:10024000009709F4C1C063E071E00E94480661E0D4
:1002500071E0892B09F0C7C090E080E00E942D0674
:1002600061E071E090E080E00E942D066C016EE29A
:1002700070E00E943D068C010097A1F17C01EC1812
:10028000FD08A701B60187E491E00E945106F7013D
:10029000E95BFE4F10820F5F1F4F1F930F938AE0A1
:1002A00091E09F938F931F9286E08F938E010F5F53
:1002B0001F4F1F930F930E94AC06B80187E491E093
:1002C0000E94320661E071E090E080E00E942D061D
:1002D000BC0187E491E00E9432060FB6F894DEBFBD
:1002E0000FBECDBF87E491E0FC0101900020E9F74B
:1002F000CF0188549140DC01AF5BBE4F2C91FC01D3
:10030000EE5BFE4F2083FC01E05CFE4F80818C930E
:100310008EE2808361E071E090E080E00E942D0633
:100320006C016EE270E00E943D068C010097A1F125
:100330007C01EC18FD08A701B60187E391E00E945B
:100340005106F701E95CFE4F10820F5F1F4F1F93AC
:100350000F938AE091E09F938F931F9286E08F9393
:100360008E010F5F1F4F1F930F930E94AC06B801C1
:1003700087E391E00E94320661E071E090E080E066
:100380000E942D06BC0187E391E00E9432060FB661
:10039000F894DEBF0FBECDBF87E391E0FC01019072
:1003A0000020E9F7CF0188539140DC01AF5CBE4FDC
:1003B0002C91FC01EE5CFE4F2083FC01E05DFE4FC2
:1003C00080818C938EE2808326960FB6F894DEBFF0
:1003D0000FBECDBFDF91CF911F910F91FF90EF9096
:1003E000DF90CF90089590E080E028CF1F920F9289
:1003F0000FB60F9211242F933F934F935F936F93F8
:100400007F938F939F93AF93BF93EF93FF93F89452
:100410008091C6008A3011F08D3069F4E09134018A
:10042000F0E0E95AFE4F108287E591E00E940F014B
:10043000109234010EC0909134019F37C8F7E091BB
:10044000340191E09E0F90933401F0E0E95AFE4FA1
:1004500080837894FF91EF91BF91AF919F918F919D
:100460007F916F915F914F913F912F910F900FBEB0
:100470000F901F90189560E080E00E94C60081E117
:1004800091E00E94850065E080E00E94C60087E45C
:1004900091E00E94850060E081E00E94C60087E153
:1004A00091E00E94850065E081E00E94C60087E33C
:1004B00091E00C948500289A089580E480937C0054
:1004C000EAE7F0E0808187608083808180688083B4
:1004D0000895ECE7F0E09081907F908390818F7099
:1004E000892B8083089580917A00806480937A00BC
:1004F00080917A0086FDFCCF809178009091790000
:100500000895CF93DF939C01FB01CAE0D0E03196C0
:10051000BE010E947B04CB010097C9F71082CAE09C
:10052000D0E0C901BE010E947B04805D82939B01E3
:10053000672BB9F7DF91CF9108954F925F926F9239
:100540007F928F929F92AF92BF92CF92DF92EF9263
:10055000FF920F931F93CF93DF93CDB7DEB728970A
:100560000FB6F894DEBF0FBECDBF6C012A013B0170
:100570008901CB01BA010E94FC044B014AE0B6019B
:10058000C4010E948706101611060CF04AC00730FD
:10059000110514F006E010E0B401990C880B990BDA
:1005A0000E9434059B01AC01C301B2010E948F047B
:1005B0004B015C016DE171E0C6010E943206F12C35
:1005C000E12C20E030E040E251E4C501B4010E949A
:1005D000C0054B015C012FEFE21AF20AE016F106AA
:1005E00084F320E030E040E05FE30E9490040E944A
:1005F000FC04CB014AE09E012F5F3F4F5901B90136
:100600000E948706F50101900020E9F731977F01EC
:10061000EA18FB08E016F106DCF0B501C6010E94FD
:10062000320628960FB6F894DEBF0FBECDBFDF911D
:10063000CF911F910F91FF90EF90DF90CF90BF90DF
:10064000AF909F908F907F906F905F904F900895A4
:100650006FE171E0C6010E9432063FEFE31AF30A30
:10066000D9CF209A289A08959091C00095FFFCCF89
:100670008093C60008958091C00087FFFCCF8091D1
:10068000C60008952898089584B18A6284B9249890
:10069000299A22982A9A81E58CBD8DB58E7F8DBDD1
:1006A0008CB5837F8CBD8CB58F7D8CBD82E08093B3
:1006B000690081E08DBB08958EBD0DB407FEFDCFAE
:1006C0008EB50895299885EF90E00197F1F700C065
:1006D00000000895299A85EF90E00197F1F700C096
:1006E000000008950F931F93CF93DF938C010E9416
:1006F0006203E80110E000E08991811118C08DE0EB
:100700008EBD0DB407FEFDCF8AE08EBD0DB407FE91
:10071000FDCF6CE081E00E94C6008AE291E00E9479
:100720008500DF91CF911F910F910C946A030130E6
:10073000110541F46AE081E00E94C6008BE291E07D
:100740000E948500FE01319780818EBD0DB407FEA9
:10075000FDCF65E081E000FD12C00E94C60081E28D
:1007600091E00E9485002FEF8FE797E021508040B5
:100770009040E1F700C000000F5F1F4FBDCF0E9407
:10078000C60086E291E0EDCFEF92FF920F931F93A8
:10079000CF93DF937C018B010E946203E7010E0D72
:1007A0001F1DC017D10731F080E00E945C038993C0
:1007B0008A30B9F7DF91CF911F910F91FF90EF90A1
:1007C0000C946A031F920F920FB60F9211248F930D
:1007D00081E0809300018F910F900FBE0F901F90CA
:1007E0001895CF93DF93CDB7DEB7C054D1400FB685
:1007F000F894DEBF0FBECDBF8FE290E00E940101F2
:100800000E9444030E9491000E9431030E945D02F5
:1008100081E00E946D0083E393E10197F1F780E8A6
:100820000E946D000E945B0281E00E9469020E94AA
:100830007302BC0190E080E00E9432056B017C01F4
:1008400023E030E0BC01A601CE018F5D9E4F0E94E7
:100850009D0260E080E00E94C600CE018F5D9E4F49
:100860000E9485008FE291E00E9472039FEF2FEFBC
:1008700082E0915020408040E1F700C000C02AE0B3
:1008800030EC49E95BE3C701B6010E94C00520E0F6
:1008900030E040E250E40E948F042DEC3CEC4CE44C
:1008A0005EE30E94C005AB01BC0123E030E0CE0155
:1008B0008F5F9E4F0E949D0260E081E00E94C60013
:1008C000CE018F5F9E4F0E9485008091000188239A
:1008D00041F060E071E0CE0101960E94C4031092E5
:1008E00000019FEF2FEF8DE1915020408040E1F714
:1008F00000C000009CCFAA1BBB1B51E107C0AA1F70
:10090000BB1FA617B70710F0A61BB70B881F991FB0
:100910005A95A9F780959095BC01CD01089550583E
:10092000BB27AA270E94A7040C9486050E9478057D
:1009300038F00E947F0520F039F49F3F19F426F427
:100940000C9475050EF4E095E7FB0C946F05E92F08
:100950000E94970558F3BA17620773078407950733
:1009600020F079F4A6F50C94B9050EF4E0950B2E61
:10097000BA2FA02D0B01B90190010C01CA01A001F1
:100980001124FF27591B99F0593F50F4503E68F14C
:100990001A16F040A22F232F342F4427585FF3CF8D
:1009A000469537952795A795F0405395C9F77EF45E
:1009B0001F16BA0B620B730B840BBAF09150A1F0A7
:1009C000FF0FBB1F661F771F881FC2F70EC0BA0F2D
:1009D000621F731F841F48F4879577956795B795B5
:1009E000F7959E3F08F0B0CF9395880F08F09927B0
:1009F000EE0F9795879508950E9403056894B111AD
:100A00000C94BA0508950E949F0588F09F5798F0AE
:100A1000B92F9927B751B0F0E1F0660F771F881F03
:100A2000991F1AF0BA95C9F714C0B13091F00E941D
:100A3000B905B1E008950C94B905672F782F882780
:100A4000B85F39F0B93FCCF3869577956795B39544
:100A5000D9F73EF490958095709561957F4F8F4FB3
:100A60009F4F0895E89409C097FB3EF490958095B8
:100A7000709561957F4F8F4F9F4F9923A9F0F92F64
:100A800096E9BB279395F695879577956795B795E2
:100A9000F111F8CFFAF4BB0F11F460FF1BC06F5FC8
:100AA0007F4F8F4F9F4F16C0882311F096E911C0DA
:100AB000772321F09EE8872F762F05C0662371F0FB
:100AC00096E8862F70E060E02AF09A95660F771F0F
:100AD000881FDAF7880F9695879597F9089597F903
:100AE0009F6780E870E060E008959FEF80EC0895D4
:100AF00000240A94161617061806090608950024FD
:100B00000A9412161306140605060895092E039476
:100B1000000C11F4882352F0BB0F40F4BF2B11F4EA
:100B200060FF04C06F5F7F4F8F4F9F4F089557FD49
:100B30009058440F551F59F05F3F71F04795880F4B
:100B400097FB991F61F09F3F79F0879508951216E2
:100B500013061406551FF2CF4695F1DF08C016168E
:100B600017061806991FF1CF86957105610508943F
:100B70000895E894BB2766277727CB0197F9089556
:100B80000E94D3050C9486050E94780538F00E94D7
:100B90007F0520F0952311F00C946F050C947505DA
:100BA00011240C94BA050E94970570F3959FC1F328
:100BB000950F50E0551F629FF001729FBB27F00D0B
:100BC000B11D639FAA27F00DB11DAA1F649F662760
:100BD000B00DA11D661F829F2227B00DA11D621FAF
:100BE000739FB00DA11D621F839FA00D611D221F69
:100BF000749F3327A00D611D231F849F600D211D4D
:100C0000822F762F6A2F11249F5750409AF0F1F0CF
:100C100088234AF0EE0FFF1FBB1F661F771F881F38
:100C200091505040A9F79E3F510580F00C946F05FC
:100C30000C94BA055F3FE4F3983ED4F3869577951C
:100C40006795B795F795E7959F5FC1F7FE2B880FDE
:100C5000911D9695879597F9089545E351E00E9477
:100C600060060895FB01DC010D900020E9F7119763
:100C700001900D920020E1F70895FC018191861703
:100C800021F08823D9F7992708953197CF01089546
:100C9000FB01DC018D91019080190110D9F3990BB2
:100CA0000895FB01DC014150504048F001900D9245
:100CB0000020C9F701C01D9241505040E0F708954F
:100CC000FA01A191B081009719F41097E1F0CD01DC
:100CD000DC01CD010D90002011F4C00113C0FB0117
:100CE0002191222319F02015D9F7F3CFFB0121918F
:100CF000201519F41E92119606C02223C1F70D90FB
:100D00000020A1F7D001FA01A193B0830895BB2779
:100D10004A3031F4992322F4BDE2909581959F4F9A
:100D20000C949306BB27FB015527AA27880F991F10
:100D3000AA1FA41710F0A41B83955051B9F7A05D0A
:100D4000AA3308F0A95DA193009779F7B111B19387
:100D50001192CB010C94CC08AEE0B0E0E2EBF6E0EF
:100D60000C9478090D891E898F89988D26E02C8333
:100D70001A83098397FF02C080E090E801979E8361
:100D80008D83AE01455E5F4F698D7A8DCE010196F0
:100D90000E94DC064D815E8157FD0AC02F81388597
:100DA000421753070CF49A01020F131FF801108227
:100DB0002E96E4E00C949409ABE0B0E0E2EEF6E0AD
:100DC0000C946A097C013B018A01FC01178216829E
:100DD000838181FFC8C1CE0101965C01F701938137
:100DE000F30193FD859193FF81913F01882309F4DD
:100DF00053C1853239F493FD859193FF81913F0171
:100E0000853229F4B70190E00E94DC08E7CF912CED
:100E1000212C312CFFE1F31538F08B3211F190F4D5
:100E2000803209F1833229F137FC3CC020ED280FD4
:100E30002A3050F536FE20C08AE0989E200D1124FD
:100E4000922E06C08D3291F0803371F7689430F89D
:100E5000F30193FD859193FF81913F018111DACFD9
:100E600021C0689431F8689432F8F2CF689433F86E
:100E7000EFCF689434F8ECCFEAE02E9E200D1124D9
:100E8000222E689435F8E4CF8E3229F436FC04C162
:100E9000689436F8DDCF8C3619F4689437F8D8CFDB
:100EA0008836B1F2982F9F7D95549330E0F08336C9
:100EB000A1F18337C1F1833509F063C02801F2E065
:100EC0004F0E511CF801C080D180692D70E036FCB6
:100ED00002C06FEF7FEFC6010E94B6084C01689414
:100EE00037F882010AC00C5F1F4FFFE3F9838824A3
:100EF0008394912C6501E89437F833FE2DC0522C71
:100F00008114910471F5552009F468CFB70180E28E
:100F100090E00E94DC085A94F6CFF8018081898322
:100F20000E5F1F4FE4CF2801F2E04F0E511CF80175
:100F3000C080D180692D70E036FC02C06FEF7FEF7A
:100F4000C6010E94C1084C018201D5CFB70180E2E1
:100F500090E00E94DC082A942814190409F0B0F7E4
:100F6000CECFF60137FC859137FE81916F01B70135
:100F700090E00E94DC0851105A94F1E08F1A910819
:100F8000BFCF843619F0893609F077C0F80137FEF3
:100F90006BC060817181828193810C5F1F4FF32D43
:100FA000FF763F2E97FF09C09095809570956195CB
:100FB0007F4F8F4F9F4F689437F82AE030E0A501AC
:100FC0000E940C09C82ECA188C2C432C36FE0CC06B
:100FD000E89440F8C91440F434FE05C032FC03C064
:100FE000F32DFE7E4F2E892C44FE95C0FE01EC0DA4
:100FF000F11D8081803309F087C0242D297E422E87
:10100000842D8870582E43FC95C040FE8FC09C2CC8
:10101000821418F42C0C922C981844FE91C0B7013D
:1010200080E390E00E94DC0842FE09C088E790E07F
:1010300041FE02C088E590E0B7010E94DC08C914B7
:1010400008F48AC0CA94D12C9FEFC91AD90ACA0CD5
:10105000DB1CF60182916F01B70190E00E94DC0871
:10106000AC14BD04B1F74FCF60817181072E000C25
:10107000880B990B0E5F1F4F92CFD32CE894D4F8B6
:101080002AE030E0853739F1232D297FD22E8F36A3
:1010900001F148F48835A9F0F701868197812B96F4
:1010A000E2E10C948609803749F08837A9F7D4FE2D
:1010B00002C06894D2F820E130E00DC06894D4F802
:1010C000F6CF34FE03C0822F8660D82E20E132E0B6
:1010D00002C028E030E0F801D7FE0FC060817181C6
:1010E000828193810C5F1F4FA5010E940C09C82EBD
:1010F000CA183D2CE89437F867CF6081718190E081
:1011000080E00E5F1F4FF0CF42FC02C0839478CF87
:101110008394839475CF842D867809F471CFF6CFAC
:10112000B70180E290E00E94DC0883948214C0F34F
:10113000512C73CF522C5818821408F46ECFF8CF6C
:10114000842D867809F47BCF8BE241FE80E247FC58
:101150008DE2B70190E071CFB70180E390E00E948B
:10116000DC089A946CCF8FEF9FEF99CFFC0105902C
:10117000615070400110D8F7809590958E0F9F1F99
:101180000895FC016150704001900110D8F78095DE
:1011900090958E0F9F1F0895DC01FC01672F7191C0
:1011A0007723E1F7329704C07C916D93708362914D
:1011B000AE17BF07C8F308950F931F93CF93DF9324
:1011C000182F092FEB018B8181FD09C01FEF0FEF55
:1011D000812F902FDF91CF911F910F91089582FF62
:1011E00014C02E813F818C819D81281739073CF4E2
:1011F000E881F981CF0101969983888310838E81DC
:101200009F8101969F838E83E3CFE885F985812FA7
:101210000995892BA1F3DACFFA01AA27283051F1D9
:10122000203181F1E8946F936E7F6E5F7F4F8F4F17
:101230009F4FAF4FB1E03ED0B4E03CD0670F781F76
:10124000891F9A1FA11D680F791F8A1F911DA11D5B
:101250006A0F711D811D911DA11D20D009F4689494
:101260003F912AE0269F11243019305D3193DEF63C
:10127000CF010895462F4770405D4193B3E00FD0F2
:10128000C9F7F6CF462F4F70405D4A3318F0495DDD
:1012900031FD4052419302D0A9F7EACFB4E0A695C0
:1012A0009795879577956795BA95C9F700976105E2
:1012B000710508959B01AC010A2E06945795479538
:1012C00037952795BA95C9F7620F731F841F951F2D
:1012D000A01D08952F923F924F925F926F927F923E
:1012E0008F929F92AF92BF92CF92DF92EF92FF9236
:1012F0000F931F93CF93DF93CDB7DEB7CA1BDB0BE2
:101300000FB6F894DEBF0FBECDBF09942A88398886
:1013100048885F846E847D848C849B84AA84B9848D
:10132000C884DF80EE80FD800C811B81AA81B98199
:10133000CE0FD11D0FB6F894DEBF0FBECDBFED01AD
:061340000895F894FFCFB0
:10134600012C00244750474741002E252E3273209A
:10135600006C61743A20006C6F6E3A20002E0030EB
:10136600006576656E006F646400646F6E6500628A
:041376006C7565002D
:00000001FF
